:020000020000FC
:040000000C94270035
:040010000C9410023A
:040034000C948502A1
:100040000C946D023F065B4F666D7C077F6F0FEF70
:100050000DBF18E01EBF00E800E80093610004E057
:10006000009361000FE70AB90FE104B900E204B997
:1000700000E207B90FE107B908B90FE100936C007E
:1000800002E000936800789441E070E060E050E0A6
:1000900030E010E0EE2781E0AA27B1E0CC27DD2791
:1000A000CC24DD240E9472000E94680022277F3049
:1000B00069F140FD0C94820041FD0C94230142FD46
:1000C0000C946F0143FD0C949B0144FD0C9457006C
:1000D00000E004BD05E005BD0BE006BD01E00093B6
:1000E0006E00089500E00093800005E00093810019
:1000F00000EF009385000DEB0093840001E0009376
:100100006F0008950E94FC000C94570077276395B8
:100110006A3011F00C94570066275395563011F051
:100120000C945700552733953A3021F0123031F0B6
:100130000C945700139533270C945700343011F06A
:100140000C94570060E050E030E010E08395D394C9
:10015000FC2DF030C1F0F130C9F0F230A1F0F330F5
:10016000C1F0F43081F0F530A1F0F63061F0F730F5
:1001700051F0F83071F0F93031F0FA3051F0FB30D5
:1001800011F00C945700D0E20C94CC00DFE10C94F9
:10019000CC00DDE10C94CC00DD1611F08A30E1F0EA
:1001A000F1E0DF2EAA2781E0B395C394BA3021F0A5
:1001B000C13031F00C945700C395DD270C945700E3
:1001C000D33010F40C945700CC27AA2781E0B1E07B
:1001D000CC24D82E0C945700A39588270C94570054
:1001E000EDE75394EA95F1F7EDE7EA95F1F7F52D90
:1001F000F630B1F7552408950E94F0001C9AF0E003
:10020000E4E4E60F94919BB90E94F0001C9A1B9ABB
:10021000F0E0E4E4E50F94919BB90E94F0001B9A92
:10022000189AF0E0E4E4E30F94919BB90E94F00087
:10023000189A199AF0E0E4E4E10F94919BB90E94B6
:10024000F000199A08952D9A1A980E94FC006A30BD
:1002500081F03A30E1F0123030F46030E4F03030C8
:1002600084F10C945700343021F1303034F10C9487
:1002700057005395563018F466270C9457006A308F
:1002800011F00C945700552766270C9457001395CE
:1002900033270C9457005530F1F05430E1F05330CF
:1002A000D1F05230C1F05130B1F055E069E00C941A
:1002B0005700112733270C94570011E039E00C94B4
:1002C0005700113021F012E033E00C94570010E099
:1002D00039E00C9457005A9569E00C9457005F9AE6
:1002E0000E9474010C9457000E94F000189AF0E0EC
:1002F000E4E4E80F94919BB90E94F000189A199ACF
:10030000F0E0E4E4EA0F94919BB90E94F000199A9E
:100310001C9AF0E0E4E4EB0F94919BB90E94F0008A
:100320001C9A1B9AF0E0E4E4EC0F94919BB90E94B4
:10033000F0001B9A08950E947401FC2DF030C1F06A
:10034000F130C9F0F230A1F0F330C1F0F43081F0B7
:10035000F530A1F0F63061F0F73051F0F83071F07F
:10036000F93031F0FA3051F0FB3011F00C945700B5
:10037000D0E20C94C101DDE10C94C101DFE10C94E9
:10038000C101FD2D8A3039F18F3F49F1BA3051F06A
:10039000DD1649F1F03061F1C13041F0B03089F043
:1003A0000C945700C395BB270C945700B33021F031
:1003B000BF3F69F00C945700CC27B1E0CC240C94DB
:1003C0005700C1E0B2E0FCE0CF2E0C945700C0E033
:1003D000B9E00C9457008827A3950C945700AA9570
:1003E00089E00C945700A0E081E0D82E0C945700CF
:1003F000D03231F0DF3151F0DD3161F00C94570033
:10040000A3E081E0DFE1DD2E0C945700A3E080E063
:10041000DEE1DD2EA2E088E0DCE1DD2E0C94570069
:100420000F930FB70F9340FD0C94230241FD0C94E2
:100430002D0242FD0C94460243FD0C944B0244FDF8
:1004400041E00C94680230990C9428020C946802E4
:10045000441F46FD41E00C94680230990C94280238
:10046000319908C0329909C033990AC034990BC038
:100470000C94680263950C94680233950C9468029E
:100480006A950C9468023A950C94680230990C9421
:1004900028020C94680230990C942802319908C003
:1004A00032990AC033990CC034990EC00C9468027A
:1004B0008395D3940C946802B395C3940C9468020A
:1004C0008A95DA940C946802BA95CA940C946802DE
:1004D000D89A0F910FBF0F9118950F930FB70F93E5
:1004E0000BE006BD2395A89A223021F0243029F094
:1004F0000C9481022A9A0C9481022A9822270C9447
:1005000081020F910FBF0F9118950F930FB70F93A3
:1005100000EF009385000DEB009384007395B09A73
:080520000F910FBF0F91189518
:00000001FF
